:020000040800F2
:10000000D0040020C9450008A5450008A745000800
:1000100000000000000000000000000000000000E0
:10002000000000000000000000000000A9450008DA
:10003000AB45000800000000AD450008AF450008D2
:10004000273A00086B3A0008733E00088345000811
:100050008F450008B7450008E5450008E74500085A
:10006000E9450008EB450008ED450008EF450008AC
:10007000F1450008F345000800000000F5450008C0
:1000800000000000F745000800000000000000002C
:10009000F945000800000000FB450008FD45000888
:1000A000FF45000801460008034600080546000811
:1000B00007460008094600080B4600080D460008E0
:1000C000FFFFFFFFFFFFFFFFFFFFFFFFFFFFFFFF40
:1000D000FFFFFFFFFFFFFFFFFFFFFFFFFFFFFFFF30
:1000E000FFFFFFFFFFFFFFFFFFFFFFFFFFFFFFFF20
:1000F000FFFFFFFFFFFFFFFFFFFFFFFFFFCC00033E
:10010000FFCC0003FFFFFFFFFFFFFFFFFFFFFFFF2D
:10011000FFFFFFFFFFFFFFFFFFFFFFFFFFFFFFFFEF
:10012000FFFFFFFFFFFFFF0FFFFFC00FFFFFFF0FEE
:10013000FFFFFFFFFFFFFF0FFFFFC00FFFFFFF0FDE
:10014000FFFFFFFFFFFFFFFFFFFFFFFFFFFF33FF8B
:10015000FF0003FFFF000003FFFF3003FF0003FF6A
:10016000FF000003FFFF3003FFFF33FFFFFFFFFF30
:10017000FFFFFFFFFFFFFFFFFFC0FC0FFFC0F0030B
:10018000FFCFC0F3FC0FC3F0FFCF03F3FFC00F039B
:10019000FFF03F03FFFFFFFFFFFFFFFFFFFFFFFF3A
:1001A000FFFFFFFFFFFF3F0FFFFF0CF3FFFFCCF34D
:1001B000FFFFC30FFFF0C3FFFFCF33FFFFCF30FFC1
:1001C000FFF0FCFFFFFFFFFFFFFFFFFFFFFFFFFF51
:1001D000FFF0FFFFFFC0303FFFCF000FFFCC0FCF7E
:1001E000FFF0FFCFFFC03FCFFFCF3FCFFFFFFFFFAD
:1001F000FFFFFFFFFFFFFFFFFFFFFFFFFFFFFFFF0F
:10020000FFFFFFFFFFFFFFFFFFFFFF0FFFFFC00F1D
:10021000FFFFFF0FFFFFFFFFFFFFFFFFFFFFFFFFDE
:10022000FFFFFFFFFFFFFFFFFFFFFFFFFFFFFFFFDE
:10023000FFF000FFFFC0003FFC03FC03FC3FFFC3D7
:10024000FFFFFFFFFFFFFFFFFFFFFFFFFFFFFFFFBE
:10025000FFFFFFFFFFFFFFFFFC3FFFC3FC03FC03AB
:10026000FFC0003FFFF000FFFFFFFFFFFFFFFFFFAA
:10027000FFFFFFFFFFFFFFFFFFFFFFFFFFFFFFFF8E
:10028000FFFFFC3FFFFF0C3FFFFF003FFFFFF003BE
:10029000FFFFF003FFFF003FFFFF0C3FFFFFFC3FAE
:1002A000FFFFFFFFFFFFFFFFFFFFFFFFFFFFCFFF8E
:1002B000FFFFCFFFFFFFCFFFFFF0003FFFFFCFFFAC
:1002C000FFFFCFFFFFFFCFFFFFFFFFFFFFFFFFFF9E
:1002D000FFFFFFFFFFFFFFFFFFFFFFFFFFFFFFFF2E
:1002E000F03FFFFFFF03FFFFFFF3FFFFFFFFFFFFF5
:1002F000FFFFFFFFFFFFFFFFFFFFFFFFFFFFFFFF0E
:10030000FFFFFFFFFFFFCFFFFFFFCFFFFFFFCFFF8D
:10031000FFFFCFFFFFFFCFFFFFFFCFFFFFFFCFFFAD
:10032000FFFFFFFFFFFFFFFFFFFFFFFFFFFFFFFFDD
:10033000FFFFFFFFFFFFFFFFFFC3FFFFFFC3FFFF45
:10034000FFFFFFFFFFFFFFFFFFFFFFFFFFFFFFFFBD
:10035000FFFFFFFFFFFFFFFFFFFFFFFFFC3FFFFF70
:10036000FC03FFFFFFC03FFFFFFC0FFFFFFFC0FFCD
:10037000FFFFF00FFFFFFF00FFFFFFF0FFFFFFFF9A
:10038000FFFFFFFFFFFFFFFFFFFC003FFFF0000F3D
:10039000FFC3FFC3FFCFFFF3FFC3FFC3FFF0000F97
:1003A000FFFC003FFFFFFFFFFFFFFFFFFFFFFFFF1F
:1003B000FFFFFFFFFFCFFFCFFFCFFFCFFFCFFFCF6D
:1003C000FFC00003FFC00003FFCFFFFFFFCFFFFF11
:1003D000FFCFFFFFFFFFFFFFFFFFFFFFFFFFFFFF5D
:1003E000FFC3FC3FFFC0FC0FFFCC3FC3FFCF0FF3A9
:1003F000FFCFC3F3FFCFF003FFCFFC0FFFFFFFFFE3
:10040000FFFFFFFFFFFFFFFFFFF3FFCFFFC3FFC3B0
:10041000FFCFF3F3FFCFF3F3FFCFF3F3FFCFC0F33F
:10042000FFC00003FFF00F0FFFFFFFFFFFFFFFFF05
:10043000FFFFFFFFFFFFFFFFFFFC3FFFFFFC03FF8E
:10044000FFCCF03FFFCCFF03FFC00003FFC0000361
:10045000FFCCFFFFFFFFFFFFFFFFFFFFFFFFFFFFDF
:10046000FFFFFFFFFFF3FFFFFFCFC003FFCFF0034E
:10047000FFCFF3F3FFCFF3F3FFC003F3FFF00FF36E
:10048000FFFFFFFFFFFFFFFFFFFFFFFFFFFFFFFF7C
:10049000FFFC00FFFFF0003FFFC3CF0FFFCFF3C310
:1004A000FFCFF3F3FFC003F3FFF00FF3FFFFFFFFF6
:1004B000FFFFFFFFFFFFFFFFFFFFFFFFFFFFFFC388
:1004C000FFFFFFF3FFFFFFF3FFC0FFF3FFC000F3E9
:1004D000FFFF0003FFFFFF03FFFFFFFFFFFFFFFF23
:1004E000FFFFFFFFFFFFFFFFFFF00C0FFFC0000348
:1004F000FFCFF3F3FFCFF3F3FFCFF3F3FFC000031E
:10050000FFF00C0FFFFFFFFFFFFFFFFFFFFFFFFFED
:10051000FFFFFFFFFFCFF00FFFCFC003FFCFCFF3F1
:10052000FFC3CFF3FFF0F3C3FFF0000FFFFF003F67
:10053000FFFFFFFFFFFFFFFFFFFFFFFFFFFFFFFFCB
:10054000FFFFFFFFFFFFFFFFFFC3F0FFFFC3F0FF51
:10055000FFFFFFFFFFFFFFFFFFFFFFFFFFFFFFFFAB
:10056000FFFFFFFFFFFFFFFFFFFFFFFFFFFFFFFF9B
:10057000FFFFFFFFFC3FFFFFFFC3FFFFFFF3F0FFA5
:10058000FFFFF0FFFFFFFFFFFFFFFFFFFFFFFFFF8A
:10059000FFFFFFFFFFFFCFFFFFFFCFFFFFFF33FF97
:1005A000FFFF33FFFFFCFCFFFFF3FF3FFFF3FF3FC5
:1005B000FFCFFFCFFFCFFFCFFFFFFFFFFFFFFFFF0B
:1005C000FFFFFFFFFFFF33FFFFFF33FFFFFF33FF9F
:1005D000FFFF33FFFFFF33FFFFFF33FFFFFF33FF5B
:1005E000FFFFFFFFFFFFFFFFFFFFFFFFFFCFFFCF7B
:1005F000FFCFFFCFFFF3FF3FFFF3FF3FFFFCFCFF09
:10060000FFFF33FFFFFF33FFFFFFCFFFFFFFCFFFF2
:10061000FFFFFFFFFFFFFFFFFFFFFFFFFFFFFC3FAD
:10062000FFFFFC0FFFCC3FCFFFCC0FCFFFFFCFCFA3
:10063000FFFFC00FFFFFF03FFFFFFFFFFFFFFFFFC8
:10064000FFFFFFFFFFFFFFFFFFF0003FFFCFFFCFE8
:10065000FF3F0FF3FF3CF3F3FF3CF3F3FFCC000F3E
:10066000FFFFFFFFFFFFFFFFFFFFFFFFFFFFFFFF9A
:10067000FFCFFFFFFFC0FFCFFFC003CFFFCF000FB3
:10068000FFFF3F0FFFFF3F0FFFCF000FFFC003FF34
:10069000FFC0FFFFFFCFFFFFFFFFFFFFFFCFFFCF39
:1006A000FFC0000FFFC0000FFFCFCFCFFFCFCFCFD6
:1006B000FFCFCFCFFFC0000FFFF0303FFFFFFFFFA6
:1006C000FFFFFFFFFFFFFFFFFFFC00FFFFF0003F0A
:1006D000FFC3FF0FFFCFFFCFFFCFFFCFFFCFFFCF76
:1006E000FFCFFFCFFFF3FF3FFFFCFC0FFFFFFFFF3C
:1006F000FFFFFFFFFFCFFFCFFFC0000FFFC0000FC6
:10070000FFCFFFCFFFCFFFCFFFCFFFCFFFC3FF0F45
:10071000FFF0003FFFFC00FFFFFFFFFFFFFFFFFFB9
:10072000FFCFFFCFFFC0000FFFC0000FFFCFCFCF25
:10073000FFCFCFCFFFCF03CFFFCFFFCFFFC0FC0F47
:10074000FFFFFFFFFFFFFFFFFFFFFFFFFFCFFFCF19
:10075000FFC0000FFFC0000FFFCFCFCFFFCFCFCF25
:10076000FFFF03CFFFFFFFCFFFFFFC0FFFFFFFFFE8
:10077000FFFFFFFFFFFFFFFFFFFC00FFFFF0003F59
:10078000FFC3FF0FFFCFFFCFFFCF3FCFFFCF3FCF45
:10079000FFC03F3FFFC03C0FFFFF3FFFFFFFFFFFDA
:1007A000FFFFFFFFFFCFFFCFFFC0000FFFC0000F15
:1007B000FFCFCFCFFFFFCFFFFFCFCFCFFFC0000FC7
:1007C000FFC0000FFFCFFFCFFFFFFFFFFFFFFFFFC7
:1007D000FFFFFFFFFFCFFFCFFFCFFFCFFFCFFFCF49
:1007E000FFC0000FFFC0000FFFCFFFCFFFCFFFCF35
:1007F000FFCFFFCFFFFFFFFFFFFFFFFFFFF03FFF38
:10080000FFC03FFFFFCFFFCFFFCFFFCFFFCFFFCF17
:10081000FFC0000FFFF0000FFFFFFFCFFFFFFFCF74
:10082000FFFFFFFFFFFFFFFFFFCFFFCFFFC0000F66
:10083000FFC0000FFFCF0FCFFFFF03FFFFFC30CF44
:10084000FFC0FC0FFFC3FF0FFFCFFFCFFFFFFFFF76
:10085000FFFFFFFFFFCFFFCFFFCFFFCFFFC0000F96
:10086000FFC0000FFFCFFFCFFFCFFFCFFFCFFFFFB6
:10087000FFCFFFFFFFC03FFFFFFFFFFFFFCFFFCF17
:10088000FFC0000FFFC0000FFFCFF0FFFFCF03FF3F
:10089000FFFC3FFFFFCF03FFFFCFF0FFFFC0000FC4
:1008A000FFC0000FFFCFFFCFFFFFFFFFFFCFFFCF46
:1008B000FFC0000FFFC0000FFFCFF0FFFFFF03FFDF
:1008C000FFFC3FCFFFC0000FFFC0000FFFFFFFCFB7
:1008D000FFFFFFFFFFFFFFFFFFFC00FFFFF0003FF8
:1008E000FFC3FF0FFFCFFFCFFFCFFFCFFFCFFFCF64
:1008F000FFC3FF0FFFF0003FFFFC00FFFFFFFFFF04
:10090000FFFFFFFFFFCFFFCFFFC0000FFFC0000FB3
:10091000FFCF3FCFFFCF3FCFFFCF3FCFFFFF000F36
:10092000FFFFC03FFFFFFFFFFFFFFFFFFFFFFFFFD6
:10093000FFFC00FFFFF0003FFCC3FF0FFC0FFFCFE9
:10094000FC0FFFCFFCCFFFCFFCC3FF0FFC30003FFD
:10095000FF3C00FFFFFFFFFFFFFFFFFFFFCFFFCFC9
:10096000FFC0000FFFC0000FFFCFCFCFFFCFCFCF13
:10097000FFFF0FCFFFF0300FFFC0F03FFFCFFFFFB3
:10098000FFCFFFFFFFFFFFFFFFFFFFFFFFC0F03FB5
:10099000FFC0C00FFFCFC3CFFFCFCFCFFFCF0FCF51
:1009A000FFC00C0FFFF03C0FFFFFFFFFFFFFFFFF3B
:1009B000FFFFFFFFFFFFF00FFFCFFFCFFFCFFFCF06
:1009C000FFC0000FFFC0000FFFCFFFCFFFCFFFCF53
:1009D000FFFFF00FFFFFFFFFFFFFFFFFFFFFFFFF26
:1009E000FFFFFFCFFFF0000FFFF0000FFFCFFFCFA3
:1009F000FFCFFFFFFFCFFFCFFFF0000FFFF0000F93
:100A0000FFFFFFCFFFFFFFFFFFFFFFFFFFFFFFCF56
:100A1000FFFFFC0FFFFF000FFFC003CFFFC3FFFF6F
:100A2000FFC003CFFFFF000FFFFFFC0FFFFFFFCF53
:100A3000FFFFFFFFFFFFFFCFFFFFC00FFFC0000F53
:100A4000FFC0FFCFFFF003CFFFFFC0FFFFF003CFDA
:100A5000FFC0FFCFFFC0000FFFFFC00FFFFFFFCFA2
:100A6000FFFFFFFFFFCFFFCFFFC3FF0FFFC0FC0F54
:100A7000FFCC00CFFFFF03FFFFCC00CFFFC0FC0F78
:100A8000FFC3FF0FFFCFFFCFFFFFFFFFFFFFFFFF02
:100A9000FFFFFFCFFFFFFF0FFFCFFC0FFFCFF0CF18
:100AA000FFC003FFFFC003FFFFCFF0CFFFCFFC0F5E
:100AB000FFFFFF0FFFFFFFCFFFFFFFFFFFFFFFFF66
:100AC000FFC3FC0FFFC0FFCFFFCC3FCFFFCF03CF53
:100AD000FFCFF0CFFFCFFC0FFFC0FF0FFFFFFFFFE7
:100AE000FFFFFFFFFFFFFFFFFFFFFFFFFFFFFFFF16
:100AF000FFFFFFFFFFFFFFFFFC000003FC00000300
:100B0000FCFFFFF3FCFFFFF3FFFFFFFFFFFFFFFF13
:100B1000FFFFFFFFFFFFFFFFFFFFFFF0FFFFFF00F3
:100B2000FFFFF00FFFFFC0FFFFFC0FFFFFC03FFF05
:100B3000FC03FFFFFC3FFFFFFFFFFFFFFFFFFFFF87
:100B4000FFFFFFFFFFFFFFFFFCFFFFF3FCFFFFF3D3
:100B5000FC000003FC000003FFFFFFFFFFFFFFFF9F
:100B6000FFFFFFFFFFFFFFFFFFFFFFFFFFFFFFFF95
:100B7000FFFFF0FFFFFFFF3FFFFFFFC3FFFFFFFC93
:100B8000FFFFFFC3FFFFFF3FFFFFF0FFFFFFFFFF80
:100B9000FFFFFFFF3FFFFFFF3FFFFFFF3FFFFFFFA5
:100BA0003FFFFFFF3FFFFFFF3FFFFFFF3FFFFFFF55
:100BB0003FFFFFFF3FFFFFFF3FFFFFFF3FFFFFFF45
:100BC000FFFFFFFFFFFFFFFFFFFFFFFFFFFFFFFF35
:100BD000FFFFFFFCFFFFFFF3FFFFFFCFFFFFFFFF64
:100BE000FFFFFFFFFFFFFFFFFFFFFFFFFFFFFFFF15
:100BF000FFFFFFFFFFF0FFFFFFC03CFFFFCF3CFF09
:100C0000FFCF3CFFFFF33CFFFFC000FFFFC003FF2F
:100C1000FFCFFFFFFFFFFFFFFFFFFFFFFFCFFFF350
:100C2000FFC00003FFC00003FFF3F3FFFFCFFCFF93
:100C3000FFCFFCFFFFC3F0FFFFF003FFFFFC0FFF40
:100C4000FFFFFFFFFFFFFFFFFFFC0FFFFFF003FFB2
:100C5000FFC3F0FFFFCFFCFFFFCFFCFFFFCFFCFF88
:100C6000FFC3F3FFFFF0C0FFFFFFFFFFFFFFFFFF2A
:100C7000FFFFFFFFFFFC0FFFFFF003FFFFC3F0FFCD
:100C8000FFCFFCFFFFCFFCFFFFF3F3F3FFC0000338
:100C9000FFC00003FFCFFFFFFFFFFFFFFFFFFFFFCE
:100CA000FFFC0FFFFFF003FFFFC330FFFFCF3CFF50
:100CB000FFCF3CFFFFCF30FFFFC303FFFFF30FFF6A
:100CC000FFFFFFFFFFFFFFFFFFFFFFFFFFFFFFFF34
:100CD000FFCFFCFFFFCFFCFFFFC0000FFFC00003F2
:100CE000FFCFFCF3FFCFFCF3FFCFFCF3FFFFFFF3DD
:100CF000FFFFFFF3FFFFFFFFFFFC0FFFFFF003FF0E
:100D0000F3C3F0FFF3CFFCFFF3CFFCFFF3F3F3FFEC
:100D1000F00000FFFC0000FFFFFFFCFFFFFFFFFFF4
:100D2000FFFFFFFFFFCFFFF3FFC00003FFC0000383
:100D3000FFCFF3FFFFFFFCFFFFCFFCFFFFC000FF73
:100D4000FFC003FFFFCFFFFFFFFFFFFFFFFFFFFF1E
:100D5000FFFFFFFFFFCFFFFFFFCFFCFFFFCFFCFF39
:100D6000FFC000C3FFC000C3FFCFFFFFFFCFFFFFE7
:100D7000FFCFFFFFFFFFFFFFFFFFFFFFFFFFFFFFB3
:100D8000F3FFFCFFF3FFFCFFF3FFFCFFF3FFFCC3EB
:100D9000F00000C3FC0000FFFFFFFFFFFFFFFFFFAD
:100DA000FFFFFFFFFFFFFFFFFFCFFFF3FFC00003C9
:100DB000FFC00003FFFF0FFFFFCC00FFFFC0F0FFED
:100DC000FFC3FCFFFFCFFCFFFFCFFFFFFFFFFFFFD5
:100DD000FFFFFFFFFFCFFFFFFFCFFFF3FFCFFFF3CB
:100DE000FFC00003FFC00003FFCFFFFFFFCFFFFFE7
:100DF000FFCFFFFFFFFFFFFFFFFFFFFFFFFFFFFF33
:100E0000FFCFFCFFFFC000FFFFC000FFFFFFFCFFA4
:100E1000FFC000FFFFC000FFFFFFFCFFFFC000FF9F
:100E2000FFC003FFFFCFFFFFFFFFFFFFFFCFFCFF70
:100E3000FFC000FFFFC000FFFFCFF3FFFFFFFCFF7D
:100E4000FFCFFCFFFFC000FFFFC003FFFFCFFFFF8E
:100E5000FFFFFFFFFFFFFFFFFFFC0FFFFFF003FFA0
:100E6000FFC3F0FFFFCFFCFFFFCFFCFFFFCFFCFF76
:100E7000FFC3F0FFFFF003FFFFFC0FFFFFFFFFFFCB
:100E8000FFFFFFFFF3FFFCFFF00000FFF00000FF9B
:100E9000F3F3F3FFF3CFFCFFFFCFFCFFFFC3F0FF43
:100EA000FFF003FFFFFC0FFFFFFFFFFFFFFFFFFF50
:100EB000FFFC0FFFFFF003FFFFC3F0FFFFCFFCFFBE
:100EC000F3CFFCFFF3F3F3FFF00000FFF00000FFAF
:100ED000F3FFFCFFFFFFFFFFFFFFFFFFFFCFFCFF64
:100EE000FFCFFCFFFFC000FFFFC000FFFFCFF3FFFD
:100EF000FFCFFCFFFFCFFCFFFFFFF0FFFFFFF3FF83
:100F0000FFFFFFFFFFFFFFFFFFC3C3FFFFC300FFA4
:100F1000FFCF0CFFFFCF0CFFFFCC3CFFFFC030FF2B
:100F2000FFF0F0FFFFFFFFFFFFFFFFFFFFFFFFFFEF
:100F3000FFFFFFFFFFFFFCFFFFFFFCFFFFF00003D1
:100F4000FFC00003FFCFFCFFFFCFFCFFFFCFFCFF84
:100F5000FFF3FFFFFFFFFFFFFFFFFFFFFFFFFFFFAD
:100F6000FFFFFCFFFFF000FFFFC000FFFFCFFFFF10
:100F7000FFCFFFFFFFF3FCFFFFC000FFFFC000FF3C
:100F8000FFCFFFFFFFFFFFFFFFFFFFFFFFFFFCFFA4
:100F9000FFFFC0FFFFFC00FFFFC03CFFFFC3FFFFE0
:100FA000FFC03CFFFFFC00FFFFFFC0FFFFFFFCFF97
:100FB000FFFFFFFFFFFFFCFFFFFF00FFFFC000FF81
:100FC000FFC0FCFFFFF03FFFFFFF0FFFFFF03FFF01
:100FD000FFC0FCFFFFC000FFFFFF00FFFFFFFCFFA3
:100FE000FFFFFFFFFFCFFCFFFFCFFCFFFFC3F0FFC2
:100FF000FFC000FFFFFC0FFFFFC000FFFFC3F0FFBB
:10100000FFCFFCFFFFCFFCFFFFFFFFFFFFFFFFFF56
:10101000FFFFFCFFF3FFF0FFF3FF00FFF0F00CFF1A
:10102000F003FFFFF300FFFFFFF00CFFFFFF00FFE7
:10103000FFFFF0FFFFFFFCFFFFFFFFFFFFFFFFFFD2
:10104000FFC3F0FFFFC0FCFFFFCC3CFFFFCF3CFF26
:10105000FFCF0CFFFFCFC0FFFFC3F0FFFFFFFFFF7D
:10106000FFFFFFFFFFFFFFFFFFFFFFFFFFFFFFFF90
:10107000FFFF3FFFFF00000FFC00C003FCFFFFF37A
:10108000FFFFFFFFFFFFFFFFFFFFFFFFFFFFFFFF70
:10109000FFFFFFFFFFFFFFFFFFFFFFFFFFFFFFFF60
:1010A000FFFFFFFFFC000003FC000003FFFFFFFF4A
:1010B000FFFFFFFFFFFFFFFFFFFFFFFFFFFFFFFF40
:1010C000FFFFFFFFFFFFFFFFFFFFFFFFFCFFFFF33F
:1010D000FC00C003FF00000FFFFF3FFFFFFFFFFF0B
:1010E000FFFFFFFFFFFFFFFFFFFFFFFFFFFFFFFF10
:1010F000FFFFCFFFFFFFF3FFFFFFF3FFFFFFCFFF78
:10110000FFFF3FFFFFFF3FFFFFFFCFFFFFFFFFFF9F
:10111000FFFFFFFFFFFFFFFFFFFFFFFFFFFFFFFFDF
:10112000FFFFFFFFFFFFFFFFFFFFFFFFFFFFFFFFCF
:10113000FFFFFCF003FFFFFFFFFFFFFFFFFFFCF0DF
:1011400003FCF003FCF003FCF003FCF003FCF003F1
:10115000FCF003FFFFFFF0CCFFFF003FF0CCC3FF2C
:10116000003FF0CCC3FFFFFFFFFFFFFF0C3FFF334B
:10117000CFF033C3FFC3CFFFFFFFFFFFFFFFFFFF32
:10118000FFF3CFFFF333FF33CFFCCCFFFF3CFFFF78
:10119000FFFFFFFFFFFF0FFFFCF0FFFCCF3FFF3F14
:1011A0003FFCCFFFFFFFFFFFFFFFFFFFFFFFFFFF42
:1011B000FFFCF3FFFFFFFFFFFFFFFFFFFFFFFFFF4E
:1011C000FFFFFFFFFFFCFF3FC3FFC3FFFFFFFFFF6A
:1011D000FFFFFFFFFFFFFFC3FFC3FCFF3FFFFFFF5A
:1011E000FFFFFFFFFFFFFFFFFFFFFFCFFFF0CFFF7E
:1011F000FF03FFF0CFFFFFCFFFFFFFFFF3FFFFF382
:10120000FFFFF3FFFC000FFFF3FFFFF3FFFFF3FF10
:10121000FFFFFFFFFFFFC3FFFFF03FFFFF3FFFFFA9
:10122000FFFFFFFFFFFFFFFFFFF3FFFFF3FFFFF3F2
:10123000FFFFF3FFFFF3FFFFFFFFFFFFFFFFFFFFD6
:10124000FC3FFFFC3FFFFFFFFFFFFFFFFFFFFFFF34
:10125000FFFFF3FFFFFC3FFFFFC3FFFFFC3FFFFF6C
:10126000C3FFFFFFFFFFFFFF000FFCFFF3FCFFF3D7
:10127000FCFFF3FF000FFFFFFFFFFFFFFCFFFFFC82
:10128000FFF3FC0003FCFFFFFCFFFFFFFFFFFFFF7E
:10129000FFFC3FCFFCCFF3FCF3F3FCFCF3FC3F0F70
:1012A000FFFFFFFFFFFFFF3FCFFCFFF3FCFCF3FC62
:1012B000FCF3FF030FFFFFFFFFFFFFFFC3FFFFCCA8
:1012C000FFFFCF0FFCCFF3FC0003FCCFFFFFFFFFBE
:1012D000FF3FFFFCFC03FCFCF3FCFCF3FF03F3FF0C
:1012E000FFFFFFFFFFFF003FFCFCCFFCFCF3FCFC1B
:1012F000F3FF03F3FFFFFFFFFFFFFFFFC3FFFFF35A
:10130000FC3FF3FFC0F3FFFF03FFFFFFFFFFFFFF03
:10131000030FFCFCF3FCFCF3FCFCF3FF030FFFFFEB
:10132000FFFFFFFFFCFC0FFCF3F3FCF3F3FF33F3D1
:10133000FFC00FFFFFFFFFFFFFFFFFFFFC3C3FFC75
:101340003C3FFFFFFFFFFFFFFFFFFFFFFFFFFFFF30
:10135000FFF0FFFFFC3CCFFF3CCFFFFFFFFFFFFF95
:10136000FFF3FFFFCCFFFFCCFFFF3F3FFCFFCFFCB5
:10137000FFCFFFFFFFFFFFFFFFCCFFFFCCFFFFCC46
:10138000FFFFCCFFFFCCFFFFFFFFFCFFCFFCFFCF39
:10139000FF3F3FFFCCFFFFCCFFFFF3FFFFFFFFFF4F
:1013A000FFFFFFFFFFFCFF3FFCFFCFFFF3CFFFFC82
:1013B0003FFFFFFFFFFFFFFC0003F3FFFCF3F0FC28
:1013C000F3CF3CFCC003FFFFFFFCFFFFFC0FFFFC63
:1013D000C033FFCFC3FCC03FFC0FFFFCFFFFFCFF8F
:1013E000F3FC0003FCFCF3FCFCF3FCFCF3FF030F39
:1013F000FFFFFFFFFFFFFF000FFCFFF3FCFFF3FC0D
:10140000FFF3FF3FC3FFFFFFFCFFF3FC0003FCFF04
:10141000F3FCFFF3FF3FCFFFC03FFFFFFFFCFFF3F5
:10142000FC0003FCFCF3FCF033FCFFF3FC3FC3FFC8
:10143000FFFFFFFFFFFCFFF3FC0003FCFCF3FFF0EA
:1014400033FFFFF3FFFFC3FFFFFFFF000FFCFFF3BE
:10145000FCF3F3FF03C3FFF3FFFFFFFFFCFFF3FC0D
:101460000003FCFCF3FFFCFFFCFCF3FC0003FCFFAF
:10147000F3FFFFFFFCFFF3FCFFF3FC0003FCFFF3B3
:10148000FCFFF3FFFFFFFFFFFFFF03FFFCFFF3FC89
:10149000FFF3FF0003FFFFF3FFFFFFFCFFF3FC0080
:1014A00003FCF3F3FFF0FFFFCF33FC3FC3FCFFF37C
:1014B000FFFFFFFCFFF3FC0003FCFFF3FCFFFFFC5E
:1014C0000FFFFFFFFFFCFFF3FC0003FCFF03FFF037
:1014D000FFFCFF03FC0003FCFFF3FCFFF3FC000335
:1014E000FCFF03FFC0FFFC3FF3FC0003FFFFF3FF23
:1014F000FFFFFF000FFCFFF3FCFFF3FCFFF3FF0017
:101500000FFFFFFFFFFFFFFCFFF3FC0003FCF3F303
:10151000FFF3F3FFFC0FFFFFFFFFFFFFFF000FFCD8
:10152000FFF3F0FFF3F0FFF3F3000FFFFFFFFCFF0B
:10153000F3FC0003FCF3F3FFF3F3FFC3F3FF3C0FF3
:10154000FCFFFFFFFFFFFC3F0FFF3CF3FCFCF3FC45
:10155000FCCFFF03C3FFFFFFFFFFC3FFFFF3FCFF51
:10156000F3FC0003FCFFF3FFFFF3FFFFC3FFFFF3F8
:10157000FF0003FCFFF3FCFFFFFCFFF3FF0003FF92
:10158000FFF3FFFFF3FFFF03FFC0F3FC3FFFFFC0CC
:10159000F3FFFF03FFFFF3FFFFF3FF0003FCFFF385
:1015A000FF00FFFCFFF3FF0003FFFFF3FCFFF3FC72
:1015B0003FC3FFCF3FFFF0FFFFCF3FFC3FC3FCFF28
:1015C000F3FFFFF3FFFFC3FCFC33FC03FFFCFC3322
:1015D000FFFFC3FFFFF3FFFFFFFC3FC3FCCFF3FCA4
:1015E000F0F3FCFF33FC3FC3FFFFFFFFFFFFFFFFF4
:1015F000FFC00003CFFFF3CFFFF3FFFFFFFFFFFFAD
:10160000FFFFFFFFFFF3FFFC0FFFC3FFF03FFFFFF4
:10161000FFFFFFFFFFFFFFFFFFFFFFCFFFF3CFFF46
:10162000F3C00003FFFFFFFFFFFFFFFFFFFFFCFF13
:10163000FFFF3FFFFFC3FFFF3FFFFCFFFFFFFF3F39
:10164000FFFF3FFFFF3FFFFF3FFFFF3FFFFF3FFF6A
:10165000FF3FFFFFFFFFFFFFFFFFFFFFFFFFFFF366
:10166000FFFFCFFFFFFFFFFFFFFFFFFFFF0CFFFCB0
:10167000F33FFCF33FFCF33FFC00FFFCFFFFFCFFEC
:10168000F3FC0003FCFCFFFCFF3FFCFF3FFF00FFFF
:10169000FFFFFFFFFFFFFF00FFFCFF3FFCFF3FFCE2
:1016A000FF3FFF3C3FFFFFFFFFFFFFFF00FFFCFF8F
:1016B0003FFCFF3FFCFCF3FC0003FCFFFFFFFFFFD0
:1016C000FF00FFFCF33FFCF33FFCF33FFCF0FFFFA8
:1016D000FFFFFFFFFFFCFF3FFC000FFCFF33FCFFA1
:1016E00033FCFF33FFFFFFFFFFFFFF00FFCCFF3F97
:1016F000CCFF3FCCFCFFF0003FFFFF3FFCFFF3FCC3
:101700000003FCFCFFFFFF3FFCFF3FFC00FFFCFF72
:10171000FFFFFFFFFCFF3FFCFF3FFC0033FCFFFF30
:10172000FCFFFFFFFFFFFFFFFFCFFF3FCFFF3FCFDC
:10173000FF33F0003FFFFFFFFFFFFFFCFFF3FC0064
:1017400003FFF3FFFCC33FFC3C3FFCFF3FFFFFFFF9
:10175000FFFFFFFCFFFFFCFFF3FC0003FCFFFFFCAF
:10176000FFFFFFFFFFFCFF3FFC003FFCFF3FFC00D3
:10177000FFFCFF3FFC00FFFCFFFFFCFF3FFC003FC6
:10178000FCFCFFFFFF3FFCFF3FFC00FFFCFFFFFFF7
:10179000FFFFFF00FFFCFF3FFCFF3FFCFF3FFF00A0
:1017A000FFFFFFFFCFFF3FC0003FCCFCFFFCFF3F30
:1017B000FCFF3FFF00FFFFFFFFFFFFFFFF00FFFCFD
:1017C000FF3FFCFF3FCCFCFFC0003FCFFF3FFFFFD0
:1017D000FFFCFF3FFC003FFCFCFFFCFF3FFCFF3F2A
:1017E000FFFFFFFFFFFFFC3CFFFCF33FFCF33FFC70
:1017F000F33FFF0C3FFFFFFFFFFFFFFFFF3FFF0037
:101800000FFCFF3FFCFF3FFCFF3FFF3FFFFFFF3FA1
:10181000FF003FFCFFFFFCFFFFFF3F3FFC003FFCE2
:10182000FFFFFFFF3FFFF03FFF0F3FFCFFFFFF0FFA
:101830003FFFF03FFFFF3FFFFF3FFF003FFCFF3F49
:10184000FF03FFFCFF3FFF003FFFFF3FFCFF3FFCAC
:101850003C3FFFC3FFFFC3FFFC3C3FFCFF3FFFFFDC
:10186000FFFFFF3FCFFC3FCFC33FC03FFFCF0F3F46
:10187000FFF03FFFFF3FFFFFFFFC3C3FFCCF3FFC83
:10188000F33FFCFC3FFC3F3FFFFFFFFFFFFFFFFF7D
:10189000FFFFCFFFF0300FCFFFF3FFFFFFFFFFFF92
:1018A000FFFFFFFFFFFFFFFFFFF00003FFFFFFFF52
:1018B000FFFFFFFFFFFFFFFFFFFFFFCFFFF3F03052
:1018C0000FFFCFFFFFFFFFFFFFFFFFFFFFFFCFFF78
:1018D000FFF3FFFFCFFFFFCFFFFFF3FFFFFFFF008F
:1018E000000000E07F00000000000000FFFF070094
:1018F00000000000E0FFFF7F0000000000F8FFFF95
:10190000FF0100000000FCFFFFFF0300000000FFDC
:10191000FFFFFF0F000000C0FFFFFFFF3F000000C0
:10192000E0FFFFFFFF7F000000F0FFFFFFFFFF0071
:101930000000E8F8FFFFFFFF01000074F7FFFFFF62
:10194000FF03000076F7FFFFFFFF07000077F7FFB8
:10195000FFFFFF0F008077F7FFFFFFFF1F00C0773B
:10196000F7FFFFFFFF3F00C08FFBFFFFFFFF3F00C0
:10197000E0FFFFFFFFFFFF7F00E0FFF7FFFFFFFF3C
:101980007F00F0FFF7FFFFFFFFFF00F0FFF7FFFF13
:101990007FE0FF00F807F0FFFF3FC0FF01F8FFF70F
:1019A000FFFF1F80FF01FCFFF7FFFF0F80FF03FC1D
:1019B000FFF7FFFF0780FF03FCFFFFFFFF0380FF30
:1019C00003FE07F0FFFF0180FF07FEFFFDFFFF00A2
:1019D000C0FF07FE7FFE0FFE00C0FF07FEBFFF0730
:1019E0007000C0FF07FFCFFF030000C0FF07FFBF6D
:1019F000FF030000E0FF0FFF7FFE010000E0FF0F8C
:101A0000FFFFFD010000F0FF0FFF07F0010000F0F5
:101A1000FF0FFFFFFF010000F0FF0FFFEFFB0100D2
:101A200000F8FF0FFFF7F7010000F8FF0FFF77F74F
:101A3000010000FCFF0FFF77F7030000FCFF0FFF22
:101A40008FF8030000FEFF07FEFFFF070000F0FF16
:101A500007FEE7FB0F0000F0FF07FED7F73F00008F
:101A6000FCFF07FEB7F7FF0100FCFF07FC77F7FF5D
:101A70000700F0FF03FCF7F8FF0000C0FF03FCFFC6
:101A8000FF3F080080FF03F807F0FF070000FE019A
:101A9000F8F7FFFF030000FC01F8F7FFFF0100006B
:101AA000F800F0F7FFFF000000F000E0F7FF7F0014
:101AB00000006000E0F7FF7F0000004000C0FFFF73
:101AC0007F0000000000C00FF83F00000000008011
:101AD000F7F73F000000000000F7F73F00000000AC
:101AE0000000F6F73F0060000000000EF87F00E005
:101AF00000000000F8FF7F00F003000000F0FFFF8F
:101B000000F00F000000E0FFFF01F87F000000C0C0
:101B1000FFFF07FE3F00000080FFFF0FFF1F0000D8
:101B20000000FEFFFFFF0F00000000F8FFFFFF03B3
:101B300000000000E0FFFF7F000000000000FFFF4A
:101B40000F000000000000E07F0000000000000027
:101B50000000000000000000000000000000000085
:101B60000000000000000000000000000000000075
:101B7000000000000000000000000020080000003D
:101B800000000000301800000000000000101100EC
:101B9000000000000000101100000000000000F034
:101BA0001F000000803B0000E00E000000C07F002E
:101BB000000000000C00404400001000003C004009
:101BC000440000100000F400C07F0000000000FF8F
:101BD00001803B0000000000FF0100000000201F0A
:101BE00000040000400000301F000000C041000061
:101BF000101200FE00C0470000101200FF01005E3E
:101C00000000F01300010100780000E01100010164
:101C100000600000000000FF0100000000FC030065
:101C2000FE0000000000FC030000000000000010A7
:101C30000000FE0000000000F00300FF01000000B3
:101C400000F003000101F00F00001000000101F09E
:101C50000F0000000000FF0140000000200100FE16
:101C600000C00F0000B003000000C00F0000900291
:101C7000003F0040000000D002003F0000000000D4
:101C80007003003000C00000002001002000C007E9
:101C900000000000002000001F00000000003F00C6
:101CA000007900000000001F000079000000000023
:101CB0000000001F00000000000300C0070000C07B
:101CC00003001F00C0000000F003007C00000000C3
:101CD00000F00000E40100000000C00300E4010087
:101CE000000000C003007C0000000000F000001FA6
:101CF00000C0070000F003000300C07F0000C00325
:101D0000000000007C000000000000000000000057
:101D1000600000000000000000F002000000000071
:101D2000000090020000000000000090020012007D
:101D300000000000F003003B00C07F0000F0010045
:101D40002900C07F00000000002D00001C0000F0F2
:101D50001F003700000E0000F01F0012008003007B
:101D600000C00100000080030000600300FE0000CE
:101D70000E0000300200FF00001C000010000021D7
:101D800000C07F00000000000000C07F0000E001F4
:101D9000001E0000000000F003003F00C07F0000B4
:101DA0009002002100C07F0000900200210000048A
:101DB0000000B003003F0000040000A001001E006E
:101DC00000040000000000000000040000E003C068
:101DD0003F00C07F0000F003C03F00C07F00001044
:101DE00000002100000000001000002100C00800D9
:101DF000003000002100C0090000F003003F004057
:101E00000B0000F003001E00400E00000000000068
:101E100000400C0000FE0300000040080000FE032C
:101E200000000000000000100200000000000000A0
:101E3000100200000000000000100200000000007E
:101E40000000F00300000000000000E001000000BE
:101E50000000000000000000000000000000000082
:101E60000000000000000000000000000000000072
:101E70000000000000000000000000000000000062
:101E80000000000000000000000000000000000052
:101E90000000000000000000000000000000000042
:101EA0000000000000000000000000000000000032
:101EB0000000000000000000000000000000000022
:101EC0000000000000000000000000000000000012
:101ED0000000000000000000000000000000000002
:101EE000000000000000000000000000000000E012
:101EF0007F00000000000000FFFF0700000000005E
:101F0000E0FFFF7F0000000000F8FFFFFF0100007E
:101F10000000FCFFFFFF0300000000FFFFFFFF0FBA
:101F2000000000C0FFFFFFFF3F000000E0FFFFFFD9
:101F3000FF7F000000F0FFFFFFFFFF000000E8F858
:101F4000FFFFFFFF01000074F7FFFFFFFF0300002A
:101F500076F7FFFFFFFF07000077F7FFFFFFFF0F98
:101F6000008077F7FFFFFFFF1F00C077F7FFFFFF3D
:101F7000FF3F00C08FFBFFFFFFFF3F00E0FFFFFFC1
:101F8000FFFFFF7F00E0FFF7FFFFFFFF7F00F0FF95
:101F9000F7FFFFFFFFFF00F0FFF7FFFF7FE0FF000D
:101FA000F807F0FFFF3FC0FF01F8FFF7FFFF1F80BA
:101FB000FF01FCFFF7FFFF0F80FF03FCFFF7FFFFB0
:101FC0000780FF03FCFFFFFFFF0380FF03FE07F016
:101FD000FFFF0180FF07FEFFFDFFFF00C0FF07FEC0
:101FE0007FFE0FFE00C0FF07FEBFFF077000C0FFAF
:101FF00007FFCFFF030000C0FF07FFBFFF03000084
:10200000E0FF0FFF7FFE010000E0FF0FFFFFFD017B
:102010000000F0FF0FFF07F0010000F0FF0FFFFFCF
:10202000FF010000F0FF0FFFEFFB010000F8FF0FC2
:10203000FFF7F7010000F8FF0FFF77F7010000FC42
:10204000FF0FFF77F7030000FCFF0FFF8FF803007F
:1020500000FEFF07FEFFFF070000F0FF07FEE7FBA3
:102060000F0000F0FF07FED7F73F0000FCFF07FE60
:10207000B7F7FF0100FCFF07FC77F7FF0700F0FF51
:1020800003FCF7F8FF0000C0FF03FCFFFF3F080060
:1020900080FF03F807F0FF070000FE01F8F7FFFFDD
:1020A000030000FC01F8F7FFFF010000F800F0F763
:1020B000FFFF000000F000E0F7FF7F00000060007D
:1020C000E0F7FF7F0000004000C0FFFF7F0000003E
:1020D0000000C00FF83F000000000080F7F73F004D
:1020E0000000000000F7F73F000000000000F6F7D6
:1020F0003F0060000000000EF87F00E000000000DC
:10210000F8FF7F00F003000000F0FFFF00F00F0079
:102110000000E0FFFF01F87F000000C0FFFF07FEA6
:102120003F00000080FFFF0FFF1F00000000FEFFC8
:10213000FFFF0F00000000F8FFFFFF03000000009A
:10214000E0FFFF7F000000000000FFFF0F00000025
:10215000000000E07F000000000000000000000020
:10216000000000000000000000000000000000006F
:10217000000000000000080000000000000000084F
:102180000000000000000000080000000000000047
:10219000F80F00000000000000F80F000001000030
:1021A0000000000800000100000000000800FE031D
:1021B00000000000000800FE030000000000000016
:1021C000000000000000F80100FC0100000000F821
:1021D0000100FE03000000000001002202000000D8
:1021E000000001002202000000000000003E030089
:1021F000000000F001001C0100000000F8010000D8
:1022000000000000000800001000000000000800AE
:10221000001000C00000001800001000C0070000FF
:10222000F801001000001F0000F801000000007914
:102230000000000000FE0300790000F00000FE0333
:10224000001F0000F801004200C007000048010024
:102250004200C0000000480100420000000000D819
:1022600001007E00C07F0000D000003C00C07F0065
:10227000000000000000404000000000007E02401E
:102280004000000000007E0240400000000000000E
:1022900000C06000000000000000803F0000F80F58
:1022A00000FC01001F0000F80F00FE01000000000C
:1022B0008808004200803F00008808000000C07FBE
:1022C000000088080000004040000088080000006E
:1022D00040400000080800000040400000000000EE
:1022E0000000404000000000003C00C0600000F81A
:1022F0000F007E0080200000F80F00420000000068
:102300000088080042000000000088080066000005
:102310000000008808002400000000008808000079
:1023200000000000000808000C0000200000000071
:10233000005E00002000000000005200C07F00008E
:10234000F80F005200C07F0000F80F007E00000070
:1023500000008008003E00C020000080080000004F
:10236000C06100008008807F00404300008008803A
:102370007F0040460000800F004200407C000000CB
:10238000070042004038000000000042000000004A
:1023900000F80F007E0000020000F80F003C000073
:1023A0000200008008000000000200008008000C0D
:1023B00000000200008008005E00000000008008AD
:1023C000005200C07F0000F80F005200C07F0000E4
:1023D0007807007E00400800000000003E00400832
:1023E0000000F00700000040080000F80F00FE03A6
:1023F000C00F0000080800FE038007000008080066
:102400004200000000000808004200C04F00000821
:1024100008004200C04F00000808007E00000000D5
:1024200000F80F003C0000000000F00700000080F2
:102430003F0000000000FE03C03F0000F80F00FE58
:102440000340080000F80F000000000000008003B7
:1024500000000000000000C001003C00000000007F
:102460007000007E000000000070000052000000BC
:102470000000C00100520000000000800300760050
:1024800000000000F80F00340000000000F80F000A
:10249000000000000000000000000000000000003C
:1024A000000000000000000000000000000000002C
:1024B000000000000000000000000000000000001C
:1024C000000000000000000000000000000000000C
:1024D00000000000000000000000000000000000FC
:1024E00000000000000000000000000000000000EC
:1024F0000000000000000000000000E07F0000007D
:1025000000000000FFFF070000000000E0FFFF7F69
:102510000000000000F8FFFFFF0100000000FCFFCA
:10252000FFFF0300000000FFFFFFFF0F000000C0DF
:10253000FFFFFFFF3F000000E0FFFFFFFF7F000005
:1025400000F0FFFFFFFFFF000000E8F8FFFFFFFFC4
:1025500001000074F7FFFFFFFF03000076F7FFFFA5
:10256000FFFF07000077F7FFFFFFFF0F008077F7FF
:10257000FFFFFFFF1F00C077F7FFFFFFFF3F00C017
:102580008FFBFFFFFFFF3F00E0FFFFFFFFFFFF7F2D
:1025900000E0FFF7FFFFFFFF7F00F0FFF7FFFFFF07
:1025A000FFFF00F0FFF7FFFF7FE0FF00F807F0FFFD
:1025B000FF3FC0FF01F8FFF7FFFF1F80FF01FCFF97
:1025C000F7FFFF0F80FF03FCFFF7FFFF0780FF030C
:1025D000FCFFFFFFFF0380FF03FE07F0FFFF01800A
:1025E000FF07FEFFFDFFFF00C0FF07FE7FFE0FFE9F
:1025F00000C0FF07FEBFFF077000C0FF07FFCFFF4F
:10260000030000C0FF07FFBFFF030000E0FF0FFF54
:102610007FFE010000E0FF0FFFFFFD010000F0FF63
:102620000FFF07F0010000F0FF0FFFFFFF010000A8
:10263000F0FF0FFFEFFB010000F8FF0FFFF7F701BE
:102640000000F8FF0FFF77F7010000FCFF0FFF7796
:10265000F7030000FCFF0FFF8FF8030000FEFF07E9
:10266000FEFFFF070000F0FF07FEE7FB0F0000F092
:10267000FF07FED7F73F0000FCFF07FEB7F7FF019B
:1026800000FCFF07FC77F7FF0700F0FF03FCF7F8FB
:10269000FF0000C0FF03FCFFFF3F080080FF03F8BE
:1026A00007F0FF070000FE01F8F7FFFF030000FC42
:1026B00001F8F7FFFF010000F800F0F7FFFF00004E
:1026C00000F000E0F7FF7F0000006000E0F7FF7F10
:1026D0000000004000C0FFFF7F0000000000C00FAE
:1026E000F83F000000000080F7F73F000000000006
:1026F00000F7F73F000000000000F6F73F00600021
:102700000000000EF87F00E000000000F8FF7F00EE
:10271000F003000000F0FFFF00F00F000000E0FFFA
:10272000FF01F87F000000C0FFFF07FE3F00000030
:1027300080FFFF0FFF1F00000000FEFFFFFF0F00E4
:10274000000000F8FFFFFF030000E03FE0FFFF7F15
:10275000000000E03F00FFFF0F00FF00200000E04E
:102760007F0080FF002000000000008000002000AB
:102770000000000080000020000000000080000039
:10278000200000C07F00800000000000C07F0080AB
:10279000FF00C0030040000000FF00E00700400011
:1027A0000000000020040040000000710020040030
:1027B00040000080F900E00700400000808800C071
:1027C000030000000080880000000080070080886F
:1027D00000800700C00F00808800E007004008006C
:1027E00080CF00E00100400800004700800700C0E3
:1027F0000F0000000080070080070080FF00E0015C
:102800000000000080FF00E00700000F008088004B
:10281000800700C00F00808800000000C003008017
:102820008800000100000F00808800000100000FF8
:102830000080FF00000100C00300007700000100DD
:10284000C00F00000000000000000F00000000F8B2
:102850000700000000000000F80700000200000070
:10286000002004000002000000002004000002001C
:10287000007F0020040000020080FF00E00700004D
:102880000000808000C00300F00F00808000000086
:1028900000F00F00808000C003004008008080002E
:1028A000E0070040080080C100200400400800004C
:1028B0004100200400C00F00000000E00700800776
:1028C00000801F00C00300000000801F0000000007
:1028D000800700001000800700C00F00001000E01B
:1028E0000700400800000000E00100400800201E32
:1028F00000800700C00F00601F00800700800700F5
:10290000C00100E00100000000800100E0070000BD
:102910000F00001F00800700C00F00001E00000015
:1029200000C00300000000C00300000F0000090009
:10293000E00700000F00801D00200500C00300809C
:102940001400200500C00F00801600600700000F73
:1029500000801B0040030000000000090000000090
:10296000800700000000E00700C00F00007F00E0CB
:102970000700400A00807F00000400400A00801029
:1029800000000400C00E00000000000000800600EF
:10299000000300000000000000801700000000C0DD
:1029A0000F00801400000000C00F00801400000021
:1029B00000000800801F00C03F00000800800F00DA
:1029C000E03F000000000000002000000000008048
:1029D000FF0020000000000080FF00200000000039
:1029E00000000000200000000000000000E03F00A8
:1029F000803F00000400C03F00C03F000004000012
:102A00000000400800000400600000000000000416
:102A100000E00300C04F00000000800F00C04F0026
:102A200080FF00803C0000000080FF00803C000030
:102A30000000000000800F00C00F00000000E00355
:102A400000C00F00000F00600000000800801F00A1
:102A5000000000000800801400E03F00C00F00806C
:102A60001400E03F00C00F00801D0000220000089D
:102A700000000D00002200000800000000002200FD
:102A8000C00F00000900002200C00700801D00E008
:102A90003F00000000801400E01D00800700801649
:102AA00000000000C00F00801B00002000400A0052
:102AB000000900002000400A00000000002000C0C3
:102AC0000E00000900E03F00800600801D00E03F8E
:102AD00000000000801400002000C00F00801600DD
:102AE000002000C00F00801B000020000008000034
:102AF00009000000000008000000000000000000C5
:102B000000000000F0B593B000F076FB304801689B
:102B1000802252050A4302602E4801682E4A0A406C
:102B2000810C1143016002200590002406940125C8
:102B300008950F95109440041190000112901020F8
:102B4000099005A800F06CFB0F20009001950294FD
:102B5000039404940021684600F070FD00F0CEFE5E
:102B60001E4F1F4E1F4C00BF20A50095AC234822CE
:102B70000021002000F0EBFE00F016FF200000F026
:102B800033FF0096AC2348220021002000F0DFFE36
:102B900000F00AFF200000F027FF0097AC23482236
:102BA0000021002000F0D3FE00F0FEFE200000F027
:102BB0001BFF0D480090AC2348220021002000F0AC
:102BC000C6FE00F0F1FE200000F00EFFCDE7000091
:102BD0003810024000700040FFE7FFFFEC1E0008C5
:102BE000E018000888130000F8240008000000E046
:102BF0007F00000000000000FFFF07000000000051
:102C0000E0FFFF7F0000000000F8FFFFFF01000071
:102C10000000FCFFFFFF0300000000FFFFFFFF0FAD
:102C2000000000C0FFFFFFFF3F000000E0FFFFFFCC
:102C3000FF7F000000F0FFFFFFFFFF000000E8F84B
:102C4000FFFFFFFF01000074F7FFFFFFFF0300001D
:102C500076F7FFFFFFFF07000077F7FFFFFFFF0F8B
:102C6000008077F7FFFFFFFF1F00C077F7FFFFFF30
:102C7000FF3F00C08FFBFFFFFFFF3F00E0FFFFFFB4
:102C8000FFFFFF7F00E0FFF7FFFFFFFF7F00F0FF88
:102C9000F7FFFFFFFFFF00F0FFF7FFFF7FE0FF0000
:102CA000F807F0FFFF3FC0FF01F8FFF7FFFF1F80AD
:102CB000FF01FCFFF7FFFF0F80FF03FCFFF7FFFFA3
:102CC0000780FF03FCFFFFFFFF0380FF03FE07F009
:102CD000FFFF0180FF07FEFFFDFFFF00C0FF07FEB3
:102CE0007FFE0FFE00C0FF07FEBFFF077000C0FFA2
:102CF00007FFCFFF030000C0FF07FFBFFF03000077
:102D0000E0FF0FFF7FFE010000E0FF0FFFFFFD016E
:102D10000000F0FF0FFF07F0010000F0FF0FFFFFC2
:102D2000FF010000F0FF0FFFEFFB010000F8FF0FB5
:102D3000FFF7F7010000F8FF0FFF77F7010000FC35
:102D4000FF0FFF77F7030000FCFF0FFF8FF8030072
:102D500000FEFF07FEFFFF070000F0FF07FEE7FB96
:102D60000F0000F0FF07FED7F73F0000FCFF07FE53
:102D7000B7F7FF0100FCFF07FC77F7FF0700F0FF44
:102D800003FCF7F8FF0000C0FF03FCFFFF3F080053
:102D900080FF03F807F0FF070000FE01F8F7FFFFD0
:102DA000030000FC01F8F7FFFF010000F800F0F756
:102DB000FFFF000000F000E0F7FF7F000000600070
:102DC000E0F7FF7F0000004000C0FFFF7F00000031
:102DD0000000C00FF83F000000000080F7F73F0040
:102DE0000000000000F7F73F000000000000F6F7C9
:102DF0003F0060000000000EF87F00E000000000CF
:102E0000F8FF7F00F003000000F0FFFF00F00F006C
:102E10000000E0FFFF01F87F000000C0FFFF07FE99
:102E20003F00000080FFFF0FFF1F00000000FEFFBB
:102E3000FFFF0F00000000F8FFFFFF03000000008D
:102E4000E0FFFF7F000000000000FFFF0F00000018
:102E5000000000E07F00000000000000000000F023
:102E60000700000000000000F80F00000000000054
:102E70000008080000000000000008080000000032
:102E80000000000808000000000000000808000022
:102E90000000000000180C000000000000001004FA
:102EA0000000000000000000000000000000000022
:102EB000F0070000000000FC01F80F000000000017
:102EC000FE030808000000000022020808000000BD
:102ED00000002202080800000000003E030808006D
:102EE000000000001C0108080000803B000000F802
:102EF0000F0000C07F001800F00700004044007879
:102F00000000000000404400E801F80F0000C07F0E
:102F100000FE03F80F0000803B00FE038008000065
:102F2000000000080080080000C07F00000080084A
:102F30000000C07F00000080080000000C000000BE
:102F4000F80F0000001E00000078070000003300AA
:102F5000000000000000806100FE0300080000C0C7
:102F60004000FE0300080000400000600000080070
:102F700000000000F000F80F0000C07F009801F88A
:102F80000F0000C07F000C03000800004044000652
:102F90000200080000404400020000080000404415
:102FA00000000000000000404400FE03F80F000095
:102FB000C07F00FE03F80F0000803B00220288085B
:102FC0000000000000220288080000000000220229
:102FD00088080000000000220288080000000000AD
:102FE000FE0308080000000000DC0100000000C033
:102FF0007F00000000000000C07F000000180C00EF
:10300000000044000000380E000000440000006092
:103010000300000044000000C0010000004400FE66
:1030200003C0010000C07F00FE0360030000C03B3E
:10303000002002380E00000000002002180C0000E2
:10304000C00000200200000000C007002002002095
:103050000000001F000002003C000000790000009A
:10306000003C0000007900FE0300200000001F006B
:10307000FE0300000000C007000000003C0000C08C
:1030800000000000003C00000000000C00001000E8
:1030900000C07F005E00403C0000C07F0052004046
:1030A0003C0000001C00520040000000000E007EAA
:1030B00000400000008003003E000000000080038C
:1030C000000000F80F0000000E002400F80F0000C0
:1030D000001C00760080030000C07F005200C00189
:1030E0000000C07F005A00700000000000006E0069
:1030F000700000000000002400C00100000000007B
:10310000000080030000000000FE03F80F00000034
:103110000000FE03F80F0000000000600000000047
:10312000000000004000F00700000000004000F830
:103130000F00000000007E00080800000000003EB4
:1031400000080800000000000000F80F0000000068
:10315000000000F007000000000000000000000078
:1031600000000000004000000000000000004000DF
:1031700000000000000000F001000000000000005E
:10318000F00100000000000000400000000000000E
:1031900000004000000000000000000000000000EF
:1031A000000000000000000000000000000000001F
:1031B000000000000000000000000000000000000F
:1031C00000000000000000000000000000000000FF
:1031D00000000000000000000000000000000000EF
:1031E00000000000000000000000000000000000DF
:1031F000000000000000000080B50848016840227F
:103200000A430260016802220A430260032000F0C0
:10321000F7FB00F007FC002002BD00000020024088
:10322000F1B582B0BA480090BA4F02980078C00752
:1032300015D5F8680C210140082907D0F8680C2141
:1032400001400C2968D1F868C00365D5386880034F
:1032500005D5029840688021490288423ED10298F3
:10326000007880071CD57868AB4901400298006956
:103270000002084378600424F8680C210140042906
:1032800007D0F8680C2101400C296FD1F868C00301
:103290006CD43868044003D00298C06801281DD15E
:1032A00002980078C0061BD578689C4901400298B6
:1032B000406A0843786078680002000A0299096A47
:1032C0000906014379607C0DF8680C21014073D137
:1032D0003868044004D00298C069012800D0F5E0A5
:1032E00002980078000700D4F2E0029840690028B4
:1032F000386D00D184E001210143396500F094FB71
:103300000400386D800700D5E2E000F08DFB001B63
:103310006428F6D90320FEBDC34E386830403860BB
:1033200000F082FB04007A4800903868800300D4E3
:10333000F6E000F079FB001B00998842F3D3E9E73F
:1033400000F072FB801B0099884200D2F8E0E1E7B0
:1033500000F06AFB04003868800300D47FE700F0C7
:1033600063FB001B00998842F5D3D3E70298C0683D
:103370000921C94300280FD03A681140084338603A
:1033800000F052FB05003868204089D100F04CFB6A
:10339000401B6428F7D9BDE738680140396000F068
:1033A00043FB05003868204000D179E700F03CFB82
:1033B000401B6428F6D9ADE70298C0690028386838
:1033C0000ED061080143396000F02EFB050038681B
:1033D000204085D100F028FB401B6428F7D999E7ED
:1033E00092490140396000F01FFB05003868204019
:1033F00000D175E700F018FB401B6428F6D989E777
:1034000001218843386500F00FFB0400386D800708
:103410005ED500F009FB001B6428F7D97AE7B9688C
:1034200001229143B9600168814A0A40026000F0BC
:10343000FBFA0400B86880074DD500F0F5FA001BD0
:103440006428F7D966E700F0EFFA801B642800D201
:103450008DE05FE700F0E8FA801B0099884200D217
:1034600093E057E700F0E0FA801B0099884200D211
:10347000A1E04FE700F0D8FA0600386D019901404D
:1034800000D19DE000F0D0FA801B00998842F4D36F
:1034900040E700F0C9FA801B642800D8A4E039E7AF
:1034A00000F0C2FA801B642800D8B6E032E7014081
:1034B000396000F0B9FA06003868800100D4B0E045
:1034C00000F0B2FA801B6428F6D923E70120FEBD84
:1034D00002980078800638D55648029989690029F3
:1034E0009DD00121BA680A43BA607A6B11437963AF
:1034F00001687A0C0A43026000F096FA0600B86888
:10350000800722D400F090FA801B6428F7D901E7E5
:103510008913000000100240FFE0FFFFFF1FFFFFC4
:103520003868064002984068304338600298406826
:1035300080214902884200D00AE700F075FA0600AF
:103540003868800300D58AE6FAE6029800784007DA
:1035500036D5B86B802149050143B9633648006808
:10356000B90D01433448016000F05EFA0600BD0D5C
:1035700031480068284000D165E7AD480400386D47
:103580002040386500F050FA0600386D800500D5FF
:1035900060E7386D04400298806820433865680011
:1035A0000190A448009002988068A84200D061E78A
:1035B00000F03AFA0600386D0199014000D151E758
:1035C0000298806A00282CD0F9680C220A400C2A44
:1035D00000D17BE798490228386800D067E70140AE
:1035E000396000F021FA06003868800100D550E704
:1035F000F868924901400298006B08430299496BB0
:1036000001430298C06A0843F86038688021490481
:103610000143396000F008FA06003868800100D4E0
:103620003EE70020FEBD0000FFFFFAFFFFFEFFFFA8
:10363000FEDFFFFF2000014000700040F2B50700F0
:103640000320C043802189000A02954C954B1B68DA
:10365000DD07ED0F009B9D425CD2924B1D68012659
:10366000B543009E2E431E6001251B682B40009E23
:10367000B34216D13B789B0705D5E368F026B343E8
:10368000BE681E43E6603B681D4022D07B68022B6B
:1036900002D121680A4003E0002B03D122681140C7
:1036A00008D1B7E0032B216802D1890102D4B1E02F
:1036B0004907FCD5E16808400343E36000F0B4F932
:1036C000060078685B4D02280BD1E0680C210140B0
:1036D000082971D000F0A8F9801BA842F5D3032077
:1036E000F2BD03280AD1E0680C2101400C2963D007
:1036F00000F09AF9801BA842F5D3F0E7002873D1B7
:10370000E0680C21014057D000F08EF9801BA842E0
:10371000F6D3E4E73B789B0705D5E368F025AB4398
:10372000BD681D43E56001253B682B4067D07B6881
:10373000022B02D121680A4003E0002B03D122684A
:10374000114008D166E0032B216802D1890102D41F
:1037500060E049075ED5E16808400343E36000F09C
:1037600063F90600786802280BD1E0680C2101405B
:10377000082944D000F058F9801B2E498842F4D320
:10378000ADE703280BD1E0680C2101400C2936D0AD
:1037900000F04AF9801B27498842F4D39FE70028AC
:1037A0003AD1E0680C21014029D000F03DF9801B9E
:1037B00020498842F5D392E73878400705D5E0687C
:1037C00040490140F8680843E0603878000706D5B2
:1037D000E0683D4901403869C0000843E0600320CB
:1037E00000F00EF90020F2BDE0680C210140042930
:1037F000E2D000F019F9801BA842F5D36FE7294801
:103800000168A943009A0A430260006805400098D5
:103810008542D1D00120F2BDE0680C21014004298D
:10382000EDD000F001F9801B02498842F4D356E73D
:10383000FFFAFFFF89130000FFFFFFFEFFFF02FFFB
:1038400030B5174C616822484300E2680C251540EA
:10385000042D04D0082D22D00C2D07D019E02068AB
:10386000C00601D5980830BD180030BDE268E16897
:10387000184D9202120FAA5C0902890F491CE468D4
:10388000E40301D45A4300E04243100000F0D2F8B0
:1038900030BD00BF12A00904490F8900405830BD57
:1038A000001002400020024080B5FFF7C9FF074921
:1038B0000968094A0906090F515CC84007490860B0
:1038C00002BD0000FFF8FFFFFFC7FFFF0C10024022
:1038D00000127A0038000020440000207000002010
:1038E00000FA000000F4010000E8030000D0070027
:1038F00040420F0080841E0000093D0010B5354C89
:103900002000083020603448606000688047FF2055
:1039100000F00BF8200010302060002010BD80B5B2
:103920002C4840684069804702BD70B50500294CAD
:103930001123AB22002100206668B668B047274EED
:10394000E8B2616849688847761EF9D170BDFEB556
:1039500006000D001F4C2248910869180B189BB2F5
:103960006946098971180A1892B2290030006768FF
:10397000BF68B8476068C769002F07D008980090F3
:1039800068460389828829003000B84760688069EA
:1039900080470500FFF7C3FF2B0082B20021002003
:1039A0006468A468A047F7BD80B50A484068C0684D
:1039B000804780214900A020C00500F026F900289A
:1039C000F7D101220421074800F026F90A2000F06F
:1039D00013FA01BD2000002000000020180C000098
:1039E000FFFF00000004005011B581B000F01CF88A
:1039F000040000F019F8001B01998842F9D313BDA7
:103A000010B50400FFF750FFFA21890000F012F80A
:103A100000F014FA002221000020C04300F00AFA4E
:103A2000002010BD7047FEE701480068704700BFE6
:103A3000C8000020094214D088420FD30122030C91
:103A400001D100041204002300185B418B4200D313
:103A50005B1A5241F8D31900100070470100002092
:103A6000704708B500F004FA08BDFEE7FEB5002275
:103A7000012301249440029425460C682C40AC425A
:103A800000D0BDE095006E4675704D68022D01D0E6
:103A9000122D1AD1D508AD0045192E6A01966E4631
:103AA00077781C263E406F463E70019EB4460F2735
:103AB0006E463678B7406646BE43B4460F696E46DA
:103AC0003678B740664637432F6255006E463570EC
:103AD000032537780326BE40F74301974E68012E31
:103AE00005D0022E03D0112E01D0122E13D18768DB
:103AF000019E3E40B446CF686E463678B740664673
:103B0000374387608688029FBE434F683F091F4046
:103B10009740374387800768019E3E40B4464F6810
:103B20002F406E463678B740664637430760C76811
:103B3000019E3E40B4468F686E463678B740664672
:103B40003743C7604E68F6005AD5364E36681E4376
:103B5000344F3E60344E9708BF00F6190196366820
:103B600002966E4677780C263E406F463E70029E67
:103B7000B4460F27FF436E463678B7406646374057
:103B80000297A027FF05B84201D1002312E0274F7A
:103B9000B8420FD0264B984201D102230AE0254BB0
:103BA000984201D1032305E0234B984201D104231D
:103BB00000E00523029D6E463678B3402B43019DFD
:103BC0002B601E4D2E68E3431E404F68FF0300D557
:103BD00026432E606E681E404F68BF0300D5264303
:103BE0006E60AE681E404F68FF0200D52643AE608F
:103BF000EE6833404E68B60201D51C432300EB60EB
:103C0000521C0F2A00D833E7F7BD008A0140080094
:103C100000D00120C0B27047002A01D081617047F6
:103C20000185704734100240080001400004005034
:103C300000080050000C0050001C0050000401401F
:103C4000F0B585B0694C200000F028FA002832D188
:103C5000674820608220400060600025A560102039
:103C6000E061E56001206061022727612562410271
:103C7000A161A5620721E16265625B4E316839434B
:103C80003160082100910197029003200390049570
:103C900069465848FFF7EAFE2020009004950297F5
:103CA00069465448FFF7E2FEB068B10C0143B160C9
:103CB000200000F0DFF805B0F0BD01B580235B0106
:103CC00001226946494800F02BF9002801D000F094
:103CD00001F801BD80B5454800F00DF9FFF7B0FFD0
:103CE00001BDF0B585B001203F490A6802430A6072
:103CF00002240A6822430A600A6822430A600A68AA
:103D000002430A600A6822430A60C10300910190DD
:103D10000025029503200390A027FF05694638007F
:103D2000FFF7A4FEA0020090324E69463000FFF774
:103D30009DFE0420009069463000FFF797FE600268
:103D4000009069463000FFF791FEE0010090019578
:103D5000029469463800FFF789FE002261023000B4
:103D6000FFF75AFF0022A1033800FFF755FF012299
:103D7000D1033800FFF750FF012204213000FFF784
:103D80004BFF0A20FFF730FEFFF75AFF05B0F0BDEA
:103D900070B50600A025ED05802424020022210034
:103DA0002800FFF739FF0122D1021248FFF734FF44
:103DB000F0B210E070B50600A025ED0580242402C5
:103DC000002221002800FFF727FF002221090948CF
:103DD000FFF722FF3000FFF770FF012221002800CB
:103DE000FFF71AFF70BD00002C1002407400002085
:103DF000003001400004005080B5FFF7F5FD01BD23
:103E000010B5C20018231340FF249C40E2438907E9
:103E1000090E9940030004D512481B071B0F083BED
:103E200000E011489B089B00C01803681A4011432A
:103E3000016010BD80B5FFF7E3FF01BD10B5401E66
:103E400080214904884201D3012010BD074C6060E5
:103E500003210020C043FFF7D3FF0020A06007210B
:103E6000216010BD1CED00E000E400E010E000E087
:103E70007047FEE710B5040001D1012010BD5120AC
:103E8000205C002802D1200000F068F920005130A9
:103E90000221017021680A887D4B13400B80616804
:103EA000A2680A43E168114322690A436169114328
:103EB000A26980239B001A400A43E1691143226AE8
:103EC0000A43A16A114322681180A169090C0422E6
:103ED0001140626A0A4321688A80E16A226811827D
:103EE00021688A8B6B4B13408B8300214170012129
:103EF0000170002010BD10B5002801D1012010BDB7
:103F0000040050340221617001680A88604B13403C
:103F10000B8000F024F90020A0706070207010BDAC
:103F2000F8B5040050346578012D00D093E00029E5
:103F300001D0150001D10120F2BD5025455D012DB4
:103F400000D188E001252570122565700027A77033
:103F500001638286C286C76487648787C787816A50
:103F60008022920191420AD101680A884A4D154087
:103F70000D8001680A888025AD0115430D80816898
:103F800080221202914205D101680A888025ED0144
:103F900015430D80016840220D88154202D10D881D
:103FA0002A430A801E00C1680029016B1ED14A1CE9
:103FB0000263097802689181C18E491EC18605009D
:103FC00010E0330000220221280000F06AF80028E7
:103FD0005BD1286B411C2963007829688881E88EB1
:103FE000401EE886E88E0028EBD136E0098802689A
:103FF0009181016B891C0163C18E491EC186050038
:10400000E88E002829D0330000220221280000F089
:1040100048F8002839D1286B008829688881286BE6
:10402000801C2863E88E401EE886E9E73300012201
:104030008021009800F035F8002823D1009880688E
:10404000002803D1009800688189008901206070F0
:1040500027700020F2BD0220F2BD0095A86A8021E1
:104060008901884205D128680188802252010A43CB
:1040700002802025330000220221009800F011F870
:104080000028D3D0A0780543A5700320F2BD00001E
:10409000BFFF0000FFF70000FFDF00005121405C80
:1040A0007047FBB582B007001400FFF7BDFC802508
:1040B000AD01274E0021C9430191002C39D13C00AC
:1040C000049F009020680089039901400398814271
:1040D00039D001988742F5D0FFF7A6FC0099401A25
:1040E0008742EFD208E00198874225D0FFF79CFC79
:1040F0000099401A87421FD2206881880E4086802E
:1041000020680188134A0A400280A06AA84208D1A8
:1041100020680188104A0A400280206801880D4307
:1041200005802000503001214170002101700320E2
:104130000AE03C00049F0090206800890399014038
:1041400003988142CFD0002005B0F0BD00000000F0
:104150001FFF0000BFFF0000FFDF00007047704737
:1041600038B50025FFF7BDFD1020FFF723FE002026
:10417000FFF70EFE1120FFF71DFE0320FFF708FEDC
:104180004420FFF717FE0020FFF702FE1120FFF783
:10419000FFFD4520FFF70EFE0020FFF7F9FDAB20E5
:1041A000FFF7F6FD4E20FFF705FE0020FFF7F0FDBC
:1041B0004F20FFF7FFFD0020FFF7EAFDF020FFF79B
:1041C000F9FD1F20FFF7E4FD2120FFF7F3FD032099
:1041D000FFF7DEFD2C20FFF7EDFDA020FFF7D8FD57
:1041E0003C20FFF7E7FD6420FFF7D2FD3220FFF708
:1041F000E1FD00BF7BA4E8B2205CFFF7C9FD6D1CA8
:10420000E8B25A28F7DB31BD10B50400242027E0BE
:10421000F8B504000D0017001E004420FFF7CAFD8A
:104220002800FFF7B5FD3000FFF7B2FD4520FFF78E
:10423000C1FD2000FFF7ACFD3800FFF7A9FD4E20BF
:10424000FFF7B8FD2800FFF7A3FD4F20FFF7B2FDF1
:104250002000FFF79DFDF1BDAC2070471220704794
:10426000FFF7A8FD2000FFF793FD10BD80B52220C9
:10427000FFF7A0FDC42004E080B52220FFF79AFDDF
:104280000320FFF785FD2020FFF794FD01BDFCB55D
:1042900083B015006846002101602420FFF78AFDE5
:1042A000A808694608816C46680735D1002506E0F4
:1042B000FF20FFF76DFDFF20FFF76AFD6D1C6846CC
:1042C000008A694609894843C10F08184010854291
:1042D00045D20A98475D002FEAD002260021605C93
:1042E000FA0702D5FC22024001E003220243625495
:1042F0007F10491C0429F2D32078800161780901DC
:104300000143A07882000A43E0781043C0B2FFF76F
:104310003FFD761ED2D0E1E7002517E0FF2012E036
:1043200003220A43E255C005000E7F1C042F4FD321
:1043300020788001617809010143A07882000A4356
:10434000E0781043C0B2FFF723FD6D1C6846018979
:10435000028A481C5043C20F1018401085423DD2BB
:104360000A98405D0190491C0027681CCA0F51182B
:104370004910FFF75FFB0029019827D0002821D0C2
:10438000022600220198A15CC30702D5FC230B4042
:1043900001E003230B43A354C005000E521C042A62
:1043A000F1D3019020788001617809010143A07860
:1043B00082000A43E0781043C0B2FFF7E9FC761EA2
:1043C000C3D0DEE7FF20FFF7E3FCA7E7F028A5D086
:1043D000E15DC207A4D5FC220A40A3E705B0F0BD09
:1043E0000000000082000000AA000000AAAA00004D
:1043F000AAAAAA0055AAAA0055555555AAAAAAAA1A
:1044000055555555AAAAAAAA151515150505050548
:104410000101010100000000000000000000000098
:10442000000000000000000000000000000000008C
:10443000000000004145F1FF5F5501000000000051
:104440000F480168820D0A430260C1680D4A0A40A4
:10445000C26001680C4A0A400260816801229143EF
:1044600081600168094A0A400260C168084A0A403E
:10447000C260002101618020000506490860704784
:10448000001002400C40FF88F6FFF6FEFFFFFBFF26
:10449000FFFF02FF08ED00E070B40123002413E0E9
:1044A0000168001D194202D04D466D1E49190C606D
:1044B000091D121F042AFAD20D00960701D50C809F
:1044C000AD1C1A4000D02C700268001D002AE7D1F4
:1044D00070BC704730B501684118446862088A189A
:1044E0008368E4070DD54C461B190AE00C7864B2CA
:1044F000491C0D78491C1D705B1C002C05D5641CE3
:10450000F9D19142F2D10C3030BD641EF1D5F8E7FB
:1045100010B5074979441831064C7C44163404E040
:10452000081D0A68891888470100A142F8D110BD0A
:10453000080000002400000061FFFFFF5800000099
:1045400074000020000000008DFFFFFFC20000008B
:10455000CE0000000000002000F00DF8002801D07F
:10456000FFF7D6FF00BF00BF002000BF00BFFEF76F
:10457000C9FA00F002F80120704780B500F002F897
:1045800001BDFEE70746384600F002F8FBE7FEE70C
:1045900080B500BF00BF024A11001820ABBEFBE788
:1045A000260002007047FEE770477047704780B5ED
:1045B00000F002F801BDFEE702480168491C0160F5
:1045C000704700BFC80000200148804701480047ED
:1045D00041440008D945000800BF00BF00BF00BF2C
:1045E000FFF7BAFFFEE7FEE7FEE7FEE7FEE7FEE7BE
:1045F000FEE7FEE7FEE7FEE7FEE7FEE7FEE7FEE793
:10460000FEE7FEE7FEE7FEE7FEE7FEE7FEE71F61E7
:1046100041000809420008114200086D4200087973
:10462000420008594200085D4200088F420008F825
:104630000018C00000080B00040014110008070057
:104640000300030406080C10182030F9000B0102C7
:1046500003040102030406070809F800100102031D
:104660000406070809030406080C10182030FD0092
:054670000380841E0020
:04000005080045D9D1
:00000001FF
