:020000041000EA
:1010000020050020191000100000000099100010A9
:1010100000040100000000801149124A124B00F048
:1010200018F8124880471249124A134B00F011F881
:101030001249134A134B00F00CF81349134A0020CD
:10104000521A02DD043A8850FCDC114880471148EE
:1010500080479B1A03DD043BC858D050FBDC704727
:10106000B01800100C0000201C0100209D10001082
:10107000C01900102005002028050020C819001004
:101080002805002028050020280500203C05002018
:101090000D180010D9130010FEE7000080B500AF56
:1010A00000F004F800F006F8BD4680BD80B500AF42
:1010B000BD4680BD80B500AF094BC0225A62094BC6
:1010C000094A1A60C046074B1A688023DB051340A3
:1010D000F9D1034BC3225A6200F008F8BD4680BD27
:1010E00000000140000301400001F13F80B500AF66
:1010F000124B1A68FF231B0213401A0A104B1A6086
:101100000E4B1B68FF221A400E4B1A600C4B1B68DB
:10111000002B0ED00A4B1B681A020A4B1B68D3180F
:101120000948191C00F0E0FA031C5A00074B1A602A
:1011300002E0064B064A1A60BD4680BD000301402E
:10114000280500202C050020000024F4FC3F00208E
:101150000048E80180B500AFBD4680BDB0B582B0A3
:1011600000AF021C3960FB1D1A70FB1D1B787F2B22
:101170002FD92D4CFB1D1B781A1C0F231340083B45
:101180009908294AFB1D1B78181C0F230340083BB4
:101190009B0806339B00D3185B68FA1D1278101C5D
:1011A00003220240D200101CFF228240D2431A4088
:1011B0003B689B01FF200340F81D0078051C0320BD
:1011C0002840C00083401A438B1D9B00E3185A60DF
:1011D00026E0164CFB1D1B785BB29B081349FA1DD9
:1011E000127852B29208C03292005258F91D097812
:1011F000081C03210140C900081CFF218140C9438C
:1012000011403A689201FF200240F81D0078051C49
:1012100003202840C00082400A43C0339B001A517B
:10122000BD4602B0B0BDC04600ED00E000E100E008
:1012300080B582B000AF78607B68013B0C4A934276
:1012400001D9012310E00B4B7A68013A5A6001235F
:101250005B42181C0321FFF781FF064B00229A60B6
:10126000044B07221A600023181CBD4602B080BD43
:10127000FFFFFF0010E000E080B582B000AF021C6D
:10128000FB1D1A70074B074A1269F8218A431A613D
:10129000044B044A1169FA1D12780A431A61BD46CB
:1012A00002B080BD0001044080B500AF024B802237
:1012B00052025A60BD4680BD0001044080B500AFB7
:1012C000024B034A5A60BD4680BDC046000104403F
:1012D0000100010080B582B000AF021CFB1D1A7036
:1012E000084B084A126908490A401A61054B054A29
:1012F0001269F91D097809020A431A61BD4602B054
:1013000080BDC04600010440FF07FFFF80B500AF6D
:10131000024B02225A60BD4680BDC0460001044017
:1013200080B500AF024B034A5A60BD4680BDC0463F
:10133000000104400200020080B582B000AF021C30
:10134000FB1D1A70084B084A126908490A401A61C5
:10135000054B054A1269F91D097809020A431A6109
:10136000BD4602B080BDC04600020440FF07FFFF3B
:1013700080B500AF034B034A126E02218A431A66FE
:10138000BD4680BD0002044080B582B000AF021CA3
:10139000FB1D1A70084B084A126908490A401A6175
:1013A000054B054A1269F91D097809040A431A61B7
:1013B000BD4602B080BDC04600020440FFFF07FFEB
:1013C00080B500AF034B034A126E04218A431A66AC
:1013D000BD4680BD0002044080B500AF204BC02256
:1013E0005A62204B204A1A60C0461E4B1A6880235E
:1013F000DB051340F9D11A4BC3225A62FFF776FE80
:1014000000F036F88020FFF737FF8020FFF762FFFB
:10141000FFF7AEFFFFF7D4FFFFF746FFFFF776FFBA
:10142000124B1B68181C0A2100F05EF9031C181CE3
:10143000FFF7FEFE9023DA058A235B00D3580822CB
:1014400013400BD19023DA059023D9058E235B003E
:10145000CB581B04190CC0235B00D150EAE7C046EF
:1014600000000140000301400004F03FFC3F002069
:1014700080B500AF634BC0225A62634B624A126967
:1014800008210A431A615F4BC3225A629023DB058D
:101490009022D205D26803210A43DA609023DB054B
:1014A0009022D205126959490A401A619023DB053E
:1014B0009022D205126956490A431A619023DB052E
:1014C0009022D205526953490A405A619023DB05A4
:1014D0009022D2055269C92189020A435A61902398
:1014E000DB059022D205526B4B490A405A63902388
:1014F000DB059022D205526B48490A435A63902378
:10150000DB059022D205926B45490A409A639023ED
:10151000DB059022D205926BA021C9000A439A6391
:101520009023DB059022D205D26B3E490A40DA6354
:101530009023DB059022D205D26B3B490A43DA6344
:101540009023DA059023D90584235B00CB583749D3
:10155000194084235B00D1509023DA059023D905EC
:1015600084235B00CB58A021C904194384235B006A
:10157000D1500020FFF708FF9023DB059022D20511
:10158000926A07218A439A629023DB059022D20552
:10159000D26907218A43DA619023DB059022D205C4
:1015A000D26906210A43DA619023DA059023D9052E
:1015B00086235B00CB581D49194086235B00D15020
:1015C0009023DA059023D90586235B00CB58184970
:1015D000194386235B00D150B020FFF7ADFE902366
:1015E000DB059022D205126C12490A401A6490233E
:1015F000DB059022D205126C02210A431A64BD4613
:1016000080BDC0460000014000030140003CFFFFD8
:101610004E820000EC8000FCFFFCC0F002010707D6
:10162000FFF3FFFFFD00FFFF01050000C0FFFFF813
:1016300020000005F0FCFFFF90B583B000AF264B03
:101640001B685A1C244B1A60234B1B68042B06D1C1
:10165000FFF734FEFFF764FE1F4B00221A601F4B9A
:101660001B685A1C1D4B1A601C4B1B68142B30D175
:10167000FB1D00221A7014E09023DA05184B1B782A
:10168000191C184B8900C958FB1D1B78CB181B78F7
:10169000191CC0235B00D150FB1D1A78FB1D0132C1
:1016A0001A70FB1D1C780E4B1B781A1C0D4B9200F8
:1016B000D358181C00F0D0F8031C9C42DCD3084B14
:1016C0001B7801225340DAB2054B1A70034B0022FB
:1016D0001A60BD4603B090BD3005002034050020DF
:1016E0003805002020050020002243088B4274D3D7
:1016F00003098B425FD3030A8B4244D3030B8B4213
:1017000028D3030C8B420DD3FF22090212BA030C1B
:101710008B4202D31212090265D0030B8B4219D3FC
:1017200000E0090AC30B8B4201D3CB03C01A52411C
:10173000830B8B4201D38B03C01A5241430B8B4264
:1017400001D34B03C01A5241030B8B4201D30B034D
:10175000C01A5241C30A8B4201D3CB02C01A524174
:10176000830A8B4201D38B02C01A5241430A8B4237
:1017700001D34B02C01A5241030A8B4201D30B0220
:10178000C01A5241CDD2C3098B4201D3CB01C01A3A
:10179000524183098B4201D38B01C01A5241430944
:1017A0008B4201D34B01C01A524103098B4201D332
:1017B0000B01C01A5241C3088B4201D3CB00C01A9F
:1017C000524183088B4201D38B00C01A5241430817
:1017D0008B4201D34B00C01A5241411A00D201463C
:1017E000524110467047FFE701B5002000F00CF8A9
:1017F00002BDC0460029F7D003B5FFF775FF0EBC48
:101800004243891A1847C0467047C0460E4B70B510
:1018100000251E1C0D4CE41AA410A54204D0AB00F8
:10182000F35898470135F8E7FFF794FC084B00257B
:101830001E1C084CE41AA410A54204D0AB00F358B7
:1018400098470135F8E770BD66180010661800105B
:1018500066180010661800100023C25C0133002ACD
:08186000FBD1581E7047000087
:101868005669736974207777772E696E66696E6535
:101878006F6E2E636F6D2F584D430D0A00000000E8
:101888005669736974207777772E696E66696E6515
:101898006F6E666F72756D732E636F6D0D0A0D0A2C
:0418A800000000003C
:1018B0002C488746000000000000000000000000E7
:1018C0000000000000000000000000000000000018
:1018D0002548874600000000000000002348874696
:1018E0002348874623488746234887462348874618
:1018F0002348874623488746234887462348874608
:10190000000000000000000021488746214887466B
:1019100021488746214887462148874621488746EF
:10192000214887462148874600000000000000004B
:1019300000000000000000001D4887461D48874643
:101940001D4887461D488746000000000000000033
:101950000000000000000000000000000000000087
:10196000000000009910001099100010991000104C
:1019700039160010991000109910001099100010DD
:101980009910001099100010991000109910001073
:101990009910001099100010991000109910001063
:1019A0009910001099100010991000109910001053
:1019B0009910001099100010991000109910001043
:0819C0006818001088180010DF
:0400000510001019BE
:00000001FF
